:0400000007EF00F016
:0A000800438284ED0AF0E9EF13F0E3
:10080000000000017151800B7A6F715171257C6F6E
:1008100070AF0DEF04F00FEF04F010EF04F07C81E7
:100820007C51D8B416EF04F018EF04F02CEF04F06C
:100830007C29D8A41EEF04F020EF04F028EF04F088
:10084000000E6E6F000E6F6F000E706F000E716FF6
:10085000708F716B34EF04F0000E6E6F000E6F6FCF
:10086000000E706F000E716F7551800B7B6F7A51A7
:100870007B19D8B43EEF04F040EF04F041EF04F0F0
:100880007A8D755175257B6F74AF49EF04F04BEF8E
:1008900004F04CEF04F07B817B51D8B452EF04F0AC
:1008A00054EF04F068EF04F07B29D8A45AEF04F069
:1008B0005CEF04F064EF04F0000E726F000E736FD3
:1008C000000E746F000E756F748F756B70EF04F00F
:1008D000000E726F000E736F000E746F000E756F56
:1008E0007C517B5DD8B077EF04F079EF04F0A0EF96
:1008F00004F07AAD7EEF04F080EF04F082EF04F0B4
:10090000800E7A1B7CC07DF07BC07CF07DC07BF0CC
:100910006EC07DF072C06EF07DC072F06FC07DF071
:1009200073C06FF07DC073F070C07DF074C070F064
:100930007DC074F071C07DF075C071F07DC075F040
:100940007D6B7C517BC076F0776B765F000E775BBA
:1009500077BFB4EF04F0775109E11A0E765DD8A0A5
:10096000B4EF04F0B6EF04F0EDEF04F06E516F1148
:1009700070117111D8A4BFEF04F0C2EF04F0010EA2
:10098000C3EF04F0000E7D6F000E6E6F000E6F6FF0
:10099000000E706F000E716F7BC07CF0F6EF04F0FC
:1009A0007DA1D5EF04F0D7EF04F0DDEF04F0D8908F
:1009B0007D3101097D6FDFEF04F0D8907D336EA1AA
:1009C000E4EF04F0E6EF04F0E7EF04F07D8F71351B
:1009D000713370336F336E337C2B7B517C5DD8A0C9
:1009E000F4EF04F0F6EF04F0D0EF04F07ABDFBEF83
:1009F00004F0FDEF04F03DEF05F07C51D8A403EFC7
:100A000005F005EF05F00FEF05F0000E6E6F000E1C
:100A10006F6F000E706F000E716F5CEF06F0725119
:100A20006E2773516F23745170237551712371A117
:100A30001CEF05F01EEF05F0CAEF05F07DA123EFD6
:100A400005F025EF05F02BEF05F0D8907D31010979
:100A50007D6F2DEF05F0D8907D336EA132EF05F05C
:100A600034EF05F035EF05F07D8F7135713370335C
:100A70006F336E337C2BCAEF05F072516E5D73518C
:100A80006F59745170597151800A766F7551800A8F
:100A90007659D8B04EEF05F050EF05F07BEF05F03A
:100AA0006E51725D766F6F517359776F70517459D3
:100AB000786F71517559796FFF0E76256E6FFF0E45
:100AC00077216F6FFF0E7821706FFF0E7921716FA4
:100AD000800E7A1B7D6D7D51D8A471EF05F073EF08
:100AE00005F083EF05F0010E6E27000E6F237023D3
:100AF000712383EF05F072516E5F73516F5B745118
:100B0000705B7551715B6E516F1170117111D8A4CA
:100B10008CEF05F08EEF05F0C3EF05F07D51D8A402
:100B200094EF05F096EF05F0C3EF05F0000E6E6F41
:100B3000000E6F6F000E706F000E716F5CEF06F0AD
:100B4000D8906E376F37703771377DAFAAEF05F0E9
:100B5000ACEF05F0ADEF05F06E817DA1B2EF05F0D1
:100B6000B4EF05F0B8EF05F0D8807D37BAEF05F0A7
:100B7000D8907D377C51D8B4C0EF05F0C2EF05F0B6
:100B8000C3EF05F07C0770AFC8EF05F0CAEF05F0C2
:100B9000A0EF05F07B6B7DAFD0EF05F0D2EF05F055
:100BA000EAEF05F07DC076F07F0E7617D8B4DBEF64
:100BB00005F0DDEF05F0E1EF05F0010E7B6FEAEFE8
:100BC00005F06EA1E6EF05F0E8EF05F0EAEF05F0BD
:100BD000DDEF05F07B51D8B4F0EF05F0F2EF05F052
:100BE0001DEF06F0010E6E27000E6F237023712398
:100BF00071A1FDEF05F0FFEF05F01DEF06F06EC0EF
:100C000076F06FC077F070C078F071C079F0793508
:100C1000793378337733763376C06EF077C06FF000
:100C200078C070F079C071F07C29D8B41AEF06F062
:100C30001CEF06F01DEF06F07C2B7C29D8B423EFC7
:100C400006F025EF06F02DEF06F07C51D8A42BEF2F
:100C500006F02DEF06F03EEF06F0000E6E6F000E70
:100C60006F6F000E706F000E716F7C51D8A43BEF58
:100C700006F03DEF06F03EEF06F07A6B7CA143EF05
:100C800006F045EF06F048EF06F0708F49EF06F0EA
:100C9000709FD8907C31716F7AAF51EF06F053EFAF
:100CA00006F054EF06F0718F6EC06EF06FC06FF0FB
:100CB00070C070F071C071F0120000018151800BA2
:100CC0008A6F81518125906F80AF69EF06F06BEFDD
:100CD00006F06CEF06F090819051D8B472EF06F0F8
:100CE00074EF06F087EF06F09029D8A47AEF06F0AB
:100CF0007CEF06F084EF06F0000E7E6F000E7F6F33
:100D0000000E806F000E816F808F8FEF06F0000E57
:100D10007E6F000E7F6F000E806F000E816F855119
:100D2000800B8A1B855185258F6F84AF9AEF06F063
:100D30009CEF06F09DEF06F08F818F51D8B4A3EFA2
:100D400006F0A5EF06F0B8EF06F08F29D8A4ABEFB8
:100D500006F0ADEF06F0B5EF06F0000E826F000E64
:100D6000836F000E846F000E856F848FC0EF06F0D6
:100D7000000E826F000E836F000E846F000E856F71
:100D80008F51D8B4C6EF06F0C8EF06F0D0EF06F0EA
:100D90009051D8A4CEEF06F0D0EF06F0DAEF06F0CF
:100DA000000E7E6F000E7F6F000E806F000E816F51
:100DB00070EF08F084517E03F3CF95F0F4CF96F0F6
:100DC00095518B6F8C6B8D6B8E6B9651916F926B77
:100DD000936B946B83517F03F3CF95F0F4CF96F030
:100DE00095518B27000E8C238D238E2396519127AE
:100DF000000E92239323942382518003F3CF95F026
:100E0000F4CF96F095518B27000E8C238D238E23E3
:100E100096519127000E9223932394238DC08EF038
:100E20008CC08DF08BC08CF08B6B82517F03F3CF25
:100E300095F0F4CF96F095518B2796518C23000EA8
:100E40008D23000E8E2383517E03F3CF95F0F4CFD4
:100E500096F095518B2796518C23000E8D23000E12
:100E60008E238DC08EF08CC08DF08BC08CF08B6B80
:100E700082517E03F3CF95F0F4CF96F095518B27F6
:100E800096518C23000E8D23000E8E2384517F03F8
:100E9000F3CF95F0F4CF96F0955191279651922388
:100EA000000E9323000E942383518003F3CF95F01B
:100EB000F4CF96F09551912796519223000E9323EB
:100EC000000E942384518003F3CF95F0F4CF96F075
:100ED0009551866F9651876F886B896B88C089F0B2
:100EE00087C088F086C087F0866B8651912787512E
:100EF000922388519323895194238BC086F08CC010
:100F000087F08DC088F08EC089F0190E8DEF07F044
:100F1000D8908933883387338633E82E88EF07F0FB
:100F20008651912787519223885193238951942385
:100F30008DC08EF08CC08DF08BC08CF08B6B8F5180
:100F400090C086F0876B8627000E8723820E862549
:100F5000956FFF0E8721966FC3EF07F0D8909137FA
:100F60009237933794378EAFB8EF07F0BAEF07F0A8
:100F7000BBEF07F09181D8908B378C378D378E3748
:100F80009507D8A0960793AFC8EF07F0CAEF07F010
:100F9000AEEF07F08F6B8EAFD0EF07F0D2EF07F018
:100FA000F6EF07F0FF0E8B15866FFF0E8C15876F1F
:100FB000FF0E8D15886F7F0E8E15896F86518711F4
:100FC00088118911D8B4E7EF07F0E9EF07F0EDEFEA
:100FD00007F0010E8F6FF6EF07F091A1F2EF07F027
:100FE000F4EF07F0F6EF07F0E9EF07F08F51D8B410
:100FF000FCEF07F0FEEF07F022EF08F0010E91275B
:10100000000E92239323942394A109EF08F00BEF91
:1010100008F022EF08F091C086F092C087F093C0EC
:1010200088F094C089F089358933883387338633D3
:1010300086C091F087C092F088C093F089C094F088
:10104000954B962B96BF2DEF08F0965108E1952908
:10105000D8A02DEF08F02FEF08F039EF08F0000EC0
:10106000916F000E926F800E936F7F0E946F66EFFC
:1010700008F096BF46EF08F0965106E19505D8B006
:1010800044EF08F046EF08F051EF08F0000E916FC2
:10109000000E926F000E936F000E946F8A6B66EFD6
:1010A00008F095C090F0FF0E9117FF0E92177F0E7B
:1010B0009317000E941790A160EF08F062EF08F00C
:1010C00063EF08F0938FD8909031946F8A51941306
:1010D00091C07EF092C07FF093C080F094C081F008
:1010E00012001250800B1B6E12501224216E11AE92
:1010F0007CEF08F07EEF08F07FEF08F021802150B0
:10110000D8B485EF08F087EF08F09AEF08F02128AF
:10111000D8A48DEF08F08FEF08F097EF08F0000EDD
:101120000F6E000E106E000E116E000E126E118EFC
:10113000A2EF08F0000E0F6E000E106E000E116E82
:10114000000E126E1650800B1B1A16501624206EBD
:1011500015AEADEF08F0AFEF08F0B0EF08F020806B
:101160002050D8B4B6EF08F0B8EF08F0CBEF08F095
:101170002028D8A4BEEF08F0C0EF08F0C8EF08F0B0
:10118000000E136E000E146E000E156E000E166E1D
:10119000158ED3EF08F0000E136E000E146E000EC5
:1011A000156E000E166E2050D8B4D9EF08F0DBEFA4
:1011B00008F0E3EF08F02150D8A4E1EF08F0E3EFE6
:1011C00008F0EDEF08F0000E0F6E000E106E000E2E
:1011D000116E000E126E83EF0AF015500F02F3CF5E
:1011E00026F0F4CF27F026501C6E1D6A1E6A1F6A77
:1011F0002750226E236A246A256A14501002F3CF06
:1012000026F0F4CF27F026501C26000E1D221E22A9
:101210001F2227502226000E23222422252213508B
:101220001102F3CF26F0F4CF27F026501C26000E33
:101230001D221E221F2227502226000E2322242296
:1012400025221EC01FF01DC01EF01CC01DF01C6A10
:1012500013501002F3CF26F0F4CF27F026501C26AF
:1012600027501D22000E1E22000E1F2214500F02B6
:10127000F3CF26F0F4CF27F026501C2627501D224E
:10128000000E1E22000E1F221EC01FF01DC01EF0E9
:101290001CC01DF01C6A13500F02F3CF26F0F4CFD0
:1012A00027F026501C2627501D22000E1E22000E5D
:1012B0001F2215501002F3CF26F0F4CF27F026504E
:1012C000222627502322000E2422000E252214500D
:1012D0001102F3CF26F0F4CF27F026502226275014
:1012E0002322000E2422000E252215501102F3CFD6
:1012F00026F0F4CF27F02650176E2750186E196A83
:101300001A6A19C01AF018C019F017C018F0176A35
:101310001750222618502322195024221A50252211
:101320001CC017F01DC018F01EC019F01FC01AF025
:10133000190EA0EF09F0D8901A321932183217326C
:10134000E82E9BEF09F0175022261850232219503F
:1013500024221A5025221EC01FF01DC01EF01CC0E2
:101360001DF01C6A205021C017F0186A1726000EC5
:101370001822820E1724266EFF0E1820276ED6EF35
:1013800009F0D89022362336243625361FAECBEF0F
:1013900009F0CDEF09F0CEEF09F02280D8901C368D
:1013A0001D361E361F362606D8A0270624AEDBEFD4
:1013B00009F0DDEF09F0C1EF09F0206A1FAEE3EF9D
:1013C00009F0E5EF09F009EF0AF0FF0E1C14176EA3
:1013D000FF0E1D14186EFF0E1E14196E7F0E1F14C3
:1013E0001A6E1750181019101A10D8B4FAEF09F025
:1013F000FCEF09F000EF0AF0010E206E09EF0AF091
:1014000022A005EF0AF007EF0AF009EF0AF0FCEF5F
:1014100009F02050D8B40FEF0AF011EF0AF035EFC1
:101420000AF0010E2226000E23222422252225A0C6
:101430001CEF0AF01EEF0AF035EF0AF022C017F099
:1014400023C018F024C019F025C01AF01A341A323B
:1014500019321832173217C022F018C023F019C001
:1014600024F01AC025F0264A272A27BE40EF0AF0AA
:10147000275008E12628D8A040EF0AF042EF0AF0F2
:101480004CEF0AF0000E226E000E236E800E246ECA
:101490007F0E256E79EF0AF027BE59EF0AF027502C
:1014A00006E12604D8B057EF0AF059EF0AF064EFCE
:1014B0000AF0000E226E000E236E000E246E000E47
:1014C000256E1B6A79EF0AF026C021F0FF0E221666
:1014D000FF0E23167F0E2416000E251621A073EF93
:1014E0000AF075EF0AF076EF0AF0248ED8902130DA
:1014F000256E1B50251222C00FF023C010F024C00F
:1015000011F025C012F012000600D9CF38F0DACF62
:1015100039F0F3CF3AF0F4CF3BF0F2A492EF0AF0B7
:1015200094EF0AF0ADEF0AF0F294FE0E026E0C0E8C
:10153000016E40EC14F08ABEA0EF0AF0A3EF0AF0AF
:10154000010EA4EF0AF0000EFF0A366E3632363274
:101550008A5036187F0B36188A6E9EA0B2EF0AF0BA
:10156000B4EF0AF00EEF0BF09E90CF0E026E2C0E31
:10157000016E3BEC14F081BAC0EF0AF0C3EF0AF041
:10158000010EC4EF0AF0000EFF0A366E363A3646F8
:101590008A503618DF0B36188A6E330E136E330EF0
:1015A000146E930E156E3F0E166E3E50020D000E19
:1015B000F324D96E010EF420DA6EDECF36F0DDCFE3
:1015C00037F036C001F037C002F0036A046A000E3B
:1015D0008BEC0CF001C00FF002C010F003C011F052
:1015E00004C012F071EC08F00FC028F010C029F010
:1015F00011C02AF012C02BF08CEC0EF028C032F093
:1016000029C033F0CBEC13F03E2A290E3E640BEFD9
:101610000BF00DEF0BF00EEF0BF03E6A9EA213EFF6
:101620000BF015EF0BF0A5EF0BF081BC1AEF0BF0F0
:101630001DEF0BF0010E1EEF0BF0000EFF0A366ED1
:10164000363A364636468A503618BF0B36188A6EFA
:10165000412A9E923B0E4118D8A431EF0BF033EF94
:101660000BF036EF0BF08A903F2A8B943C0E41181A
:10167000D8A43DEF0BF03FEF0BF04BEF0BF0416ABE
:101680008A80020E3F18D8A448EF0BF04AEF0BF007
:101690004BEF0BF03F6A150E4018D8A452EF0BF039
:1016A00054EF0BF055EF0BF08A982D0E4018D8A48C
:1016B0005CEF0BF05EEF0BF05FEF0BF08A88330E00
:1016C0004018D8A466EF0BF068EF0BF069EF0BF051
:1016D0008A984A0E4018D8A470EF0BF072EF0BF006
:1016E00073EF0BF08A88510E4018D8A47AEF0BF0F4
:1016F0007CEF0BF07DEF0BF08A98580E4018D8A4C1
:1017000084EF0BF086EF0BF087EF0BF08A886F0EFB
:101710004018D8A48EEF0BF090EF0BF091EF0BF088
:101720008A98760E4018D8A498EF0BF09AEF0BF039
:101730009BEF0BF08A88402A770E4064A2EF0BF0F3
:10174000A4EF0BF0A5EF0BF0406A3BC0F4FF3AC0EA
:10175000F3FF39C0DAFF38C0D9FF4392110000010E
:10176000686F00016851D8B4B8EF0BF0BAEF0BF016
:10177000DCEF0BF063BFC1EF0BF0BFEF0BF0DCEF62
:101780000BF060C064F061C065F062C066F063C0D9
:1017900067F0641F651F661F671F642B000E6523BB
:1017A0006623672364C06AF065C06BF066C06CF0A6
:1017B00067C06DF0E4EF0BF060C06AF061C06BF0E1
:1017C00062C06CF063C06DF0605161116211631111
:1017D000D8A4EDEF0BF0EFEF0BF0F9EF0BF0000EEC
:1017E000606F000E616F000E626F000E636F8AEF14
:1017F0000CF0960E696F03EF0CF0692BD8906D33E7
:101800006C336B336A33000E6A15646F000E6B1510
:10181000656F000E6C15666FFE0E6D15676F645177
:10182000651166116711D8A418EF0CF01AEF0CF0CF
:10183000FDEF0BF028EF0CF0692B010E6A27000E6C
:101840006B236C236D23D8906D336C336B336A3309
:10185000000E6A15646F000E6B15656F000E6C1537
:10186000666FFF0E6D15676F645165116611671124
:10187000D8A43DEF0CF03FEF0CF01CEF0CF047EF5D
:101880000CF06907D8906A376B376C376D376CBFCF
:101890004CEF0CF04EEF0CF056EF0CF0020E6961BD
:1018A00054EF0CF056EF0CF041EF0CF069B15BEF28
:1018B0000CF05DEF0CF05EEF0CF06C9FD89069338C
:1018C00069C064F0656B666B676B64C067F0666BDC
:1018D000656B646B64516A1365516B1366516C13CD
:1018E00067516D136851D8B478EF0CF07AEF0CF0B3
:1018F00082EF0CF063BF81EF0CF07FEF0CF082EF12
:101900000CF06D8F6AC060F06BC061F06CC062F06B
:101910006DC063F01200096E0950D8B492EF0CF05C
:1019200094EF0CF0B6EF0CF004BE9BEF0CF099EFC7
:101930000CF0B6EF0CF001C005F002C006F003C0D9
:1019400007F004C008F0051E061E071E081E052A23
:10195000000E06220722082205C00BF006C00CF07C
:1019600007C00DF008C00EF0BEEF0CF001C00BF088
:1019700002C00CF003C00DF004C00EF001500210C4
:1019800003100410D8A4C7EF0CF0C9EF0CF0D3EF8C
:101990000CF0000E016E000E026E000E036E000EC3
:1019A000046E64EF0DF0960E0A6EDDEF0CF00A2A5D
:1019B000D8900E320D320C320B32000E0B14056E25
:1019C000000E0C14066E000E0D14076EFE0E0E14A3
:1019D000086E0550061007100810D8A4F2EF0CF09E
:1019E000F4EF0CF0D7EF0CF002EF0DF00A2A010E25
:1019F0000B26000E0C220D220E22D8900E320D3234
:101A00000C320B32000E0B14056E000E0C14066E19
:101A1000000E0D14076EFF0E0E14086E0550061012
:101A200007100810D8A417EF0DF019EF0DF0F6EF1E
:101A30000CF021EF0DF00A06D8900B360C360D365F
:101A40000E360DBE26EF0DF028EF0DF030EF0DF045
:101A5000020E0A602EEF0DF030EF0DF01BEF0DF0CF
:101A60000AB035EF0DF037EF0DF038EF0DF00D9EA9
:101A7000D8900A320AC005F0066A076A086A05C0EB
:101A800008F0076A066A056A05500B1206500C1228
:101A900007500D1208500E120950D8B452EF0DF035
:101AA00054EF0DF05CEF0DF004BE5BEF0DF059EF5D
:101AB0000DF05CEF0DF00E8E0BC001F00CC002F0CB
:101AC0000DC003F00EC004F012009494720ED36E99
:101AD000CA84CC6A0F0EBD6E8E0E0001B36FE30E8A
:101AE000B46F0A0EB56F430EB66FF4EC10F0B3C0CE
:101AF000BDF0B4C0BEF0B5C0BFF0B6C0C0F0BDC050
:101B000097F0BEC098F0BFC099F0C0C09AF008EC42
:101B10000EF000019751C96FC9C0CBFF000E826F54
:101B2000000E836F000E846F400E856F000E726F83
:101B3000000E736F800E746F3F0E756FC951606F2A
:101B4000616B626B636B000EAFEC0BF060C06EF00C
:101B500061C06FF062C070F063C071F001EC04F01E
:101B60006EC07EF06FC07FF070C080F071C081F0F9
:101B70005DEC06F07EC0C1F07FC0C2F080C0C3F053
:101B800081C0C4F0C1C0B3F0C2C0B4F0C3C0B5F0EE
:101B9000C4C0B6F0F4EC10F0B3C0C5F0B4C0C6F0E9
:101BA000B5C0C7F0B6C0C8F0C5C097F0C6C098F0C1
:101BB000C7C099F0C8C09AF008EC0EF097C0CAF000
:101BC00098C0CBF00001CAB102D0BD9801D0BD8849
:101BD000D8900001CB31BC6FCA31BB6FBB3BBB4758
:101BE000BD50BB19DF0BBB19BD6ECAC0BBF0CBC06B
:101BF000BCF0D890BC33BB33D890BC33BB33BB51A3
:101C0000BE6E93908A80800EB76ED00EB66E1200B4
:101C1000000199359A35A06FA051D8A412EF0EF0AB
:101C200014EF0EF01EEF0EF0000E976F000E986F7F
:101C3000000E996F000E9A6F8BEF0EF097C09BF01D
:101C400098C09CF099C09DF09AC09EF0200E2EEF97
:101C50000EF0D8909E339D339C339B33E82E29EFB2
:101C60000EF09B519F6F998FFF0E9717FF0E9817DD
:101C7000FF0E9917000E9A17960EA05FA0BF45EFB2
:101C80000EF043EF0EF05BEF0EF0A051800A970FBD
:101C9000D8B04DEF0EF04FEF0EF051EF0EF014EF05
:101CA0000EF0D8909A33993398339733A03F51EF81
:101CB0000EF073EF0EF01F0EA06561EF0EF063EFF4
:101CC0000EF06BEF0EF014EF0EF0D89097379837B8
:101CD00099379A37A007A051D8A471EF0EF073EF8F
:101CE0000EF065EF0EF09F51D8B479EF0EF07BEF58
:101CF0000EF083EF0EF09A1F991F981F976D000E3C
:101D0000982399239A2397C097F098C098F099C088
:101D100099F09AC09AF012002A342B34316E315067
:101D2000D8A495EF0EF097EF0EF0A1EF0EF0000E95
:101D3000286E000E296E000E2A6E000E2B6E0EEF1E
:101D40000FF028C02CF029C02DF02AC02EF02BC097
:101D50002FF0200EB1EF0EF0D8902F322E322D3210
:101D60002C32E82EACEF0EF02C50306E2A8EFF0E87
:101D70002816FF0E2916FF0E2A16000E2B16960E99
:101D8000315E31BEC8EF0EF0C6EF0EF0DEEF0EF0A2
:101D90003150800A970FD8B0D0EF0EF0D2EF0EF08E
:101DA000D4EF0EF097EF0EF0D8902B322A32293272
:101DB0002832313ED4EF0EF0F6EF0EF01F0E3164F4
:101DC000E4EF0EF0E6EF0EF0EEEF0EF097EF0EF010
:101DD000D890283629362A362B3631063150D8A4E9
:101DE000F4EF0EF0F6EF0EF0E8EF0EF03050D8B44E
:101DF000FCEF0EF0FEEF0EF006EF0FF02B1E2A1E8A
:101E0000291E286C000E29222A222B2228C028F005
:101E100029C029F02AC02AF02BC02BF0120094927E
:101E20000F0EBA6ECBCFC5F0000E0001826F000E10
:101E3000836F000E846F400E856F000E726F000E70
:101E4000736F800E746F3F0E756FC551606F616B5D
:101E5000626B636B000EAFEC0BF060C06EF061C0A4
:101E60006FF062C070F063C071F001EC04F06EC0FE
:101E70007EF06FC07FF070C080F071C081F05DECCB
:101E800006F07EC0BDF07FC0BEF080C0BFF081C054
:101E9000C0F0BDC0B3F0BEC0B4F0BFC0B5F0C0C0AC
:101EA000B6F0F4EC10F0B3C0C1F0B4C0C2F0B5C0ED
:101EB000C3F0B6C0C4F0C1C097F0C2C098F0C3C0B0
:101EC00099F0C4C09AF008EC0EF097C0C6F098C024
:101ED000C7F00001C6B102D0BA9801D0BA88D89034
:101EE0000001C731BC6FC631BB6FBB3BBB47BA50AB
:101EF000BB19DF0BBB19BA6EC6C0BBF0C7C0BCF0C4
:101F0000D890BC33BB33D890BC33BB33BB51BB6E12
:101F1000120000016D6FF00E836E000E0001686FFD
:101F20000A0E676FE7EC12F000016D518314F00B9D
:101F3000836E000E686F0A0E676FE7EC12F08394F1
:101F400083928380000E0001686F0A0E676FE7ECD2
:101F500012F08390000E0001686F0A0E676FE7ECC5
:101F600012F0F00E836E00016D39F00B8314F00B4C
:101F7000836E839483928380000E686F0A0E676F6E
:101F8000E7EC12F08390000E0001686F0A0E676F95
:101F9000E7EC12F000016D05D8A4D1EF0FF0D3EFFC
:101FA0000FF0D9EF0FF0000E686F640E676FE7EC6B
:101FB00012F000016D51D8A4E0EF0FF0E2EF0FF046
:101FC000E8EF0FF0000E686F640E676FE7EC12F039
:101FD000120068C06CF069C06DF06CC060F06DC03C
:101FE00061F06AC062F06BC063F017EC12F060C081
:101FF0006CF061C06DF00001672B6C516D11D8A4BD
:1020000004EF10F006EF10F0EDEF0FF06751D96E0E
:10201000DA6ADF6A670768C060F069C061F06AC0A9
:1020200062F06BC063F052EC12F0000160516E6F11
:1020300068C060F069C061F06AC062F06BC063F0B4
:1020400017EC12F060C068F061C069F0090E000181
:102050006E652DEF10F02FEF10F031EF10F0070E3E
:102060006E27300E6E276751D96EDA6A6EC0DFFFB9
:10207000670768516911D8A440EF10F042EF10F0E3
:102080000BEF10F0672B1200A1C06CF0A2C06DF036
:10209000A3C06EF0A4C06FF0A90E0001706F45ECF4
:1020A00011F00001AABF59EF10F057EF10F063EFE5
:1020B00010F0000EA16F000EA26F000EA36F000EB5
:1020C000A46F9DEF10F0AA5109E11D0EA95DD8A0E3
:1020D0006CEF10F06EEF10F078EF10F0A1C0A1F0EF
:1020E000A2C0A2F0A3C0A3F0A4C0A4F09DEF10F082
:1020F000A1C097F0A2C098F0A3C099F0A4C09AF034
:1021000008EC0EF097C060F098C061F099C062F0E2
:102110009AC063F0010EAFEC0BF060C0A5F061C097
:10212000A6F062C0A7F063C0A8F0A5C0A1F0A6C049
:10213000A2F0A7C0A3F0A8C0A4F01200000E0001F6
:102140006015686F000E6115696F800E62156A6F09
:102150007F0E63156B6F685169116A116B11D8A4FA
:10216000B4EF10F0B6EF10F0BEEF10F0000E606F9D
:10217000000E616F000E626F000E636F000E64153B
:10218000686F000E6515696F800E66156A6F7F0EA9
:1021900067156B6F685169116A116B11D8A4D3EF81
:1021A00010F0D5EF10F0DDEF10F0000E646F000EB0
:1021B000656F000E666F000E676F645160190FE166
:1021C000655161190CE16651621909E167516319A2
:1021D000D8B4EDEF10F0EFEF10F0F2EF10F0D89070
:1021E000F3EF10F0D8801200B3C0ABF0B4C0ACF085
:1021F000B5C0ADF0B6C0AEF0B3C0A1F0B4C0A2F0AF
:10220000B5C0A3F0B6C0A4F044EC10F0A1C0AFF08C
:10221000A2C0B0F0A3C0B1F0A4C0B2F065EC13F05E
:10222000ABC0B7F0ACC0B8F0ADC0B9F0AEC0BAF05A
:10223000B3C06EF0B4C06FF0B5C070F0B6C071F04E
:10224000B7C072F0B8C073F0B9C074F0BAC075F01E
:1022500001EC04F06EC0B3F06FC0B4F070C0B5F024
:1022600071C0B6F0B3C0A1F0B4C0A2F0B5C0A3F085
:10227000B6C0A4F044EC10F0A1C0B3F0A2C0B4F01A
:10228000A3C0B5F0A4C0B6F012006CC060F06DC081
:1022900061F06EC062F06FC063F0000E0001646F09
:1022A000000E656F000E666F000E676F9EEC10F0FB
:1022B0000001D8A05EEF11F060EF11F067EF11F0B0
:1022C0007051D96EDA6ADE6ADD6A93EF11F06F51F0
:1022D0007F0B716F726BD890713772377051D96EF6
:1022E000DA6A71C0DEFF72C0DDFF7051D96EDA6A42
:1022F0006EBF7DEF11F081EF11F0716B712B83EFE9
:1023000011F00001716B7151DE12000EDD1270517F
:10231000D96EDA6A820EDE26FF0EDD226F51800B47
:102320003F096F6F6E9F120000016D6FF00E836E9C
:10233000000E0001686F280E676FE7EC12F00001D5
:102340006D518314F00B836E000E686F280E676F5B
:10235000E7EC12F0839483828380000E0001686FA3
:10236000280E676FE7EC12F08390000E0001686F93
:10237000280E676FE7EC12F0F00E836E00016D39E6
:10238000F00B8314F00B836E839483828380000EA2
:10239000686F280E676FE7EC12F08390000E000163
:1023A000686F280E676FE7EC12F012000001706F83
:1023B000020E00017019D8A4E0EF11F0E2EF11F065
:1023C000E8EF11F06E51C00F89EC0FF00AEF12F038
:1023D0007005D8A4EEEF11F0F0EF11F0F6EF11F068
:1023E0006E51800F89EC0FF00AEF12F0800E89EC2D
:1023F0000FF00AEF12F0000E686FC80E676FE7EC7F
:1024000012F000016F51D96EDA6ADF5094EC11F0CE
:1024100000016F2B00016F51D96EDA6ADF50D8A42A
:1024200014EF12F016EF12F0FBEF11F01200000E95
:102430000001656F000E646F62516311D8B423EF21
:1024400012F025EF12F04DEF12F0010E666F2DEF36
:1024500012F0D89062376337662B63AF32EF12F019
:1024600034EF12F029EF12F0D890643765376251DB
:10247000605D63516159D8A040EF12F042EF12F055
:1024800047EF12F06251605F6351615B6481D890E5
:1024900063336233662F34EF12F064C060F065C0BE
:1024A00061F01200000162516311D8B45AEF12F0CA
:1024B0005CEF12F080EF12F0010E646F64EF12F027
:1024C000D89062376337642B63AF69EF12F06BEF1C
:1024D00012F060EF12F06251605D63516159D8A053
:1024E00074EF12F076EF12F07AEF12F06251605F43
:1024F0006351615BD89063336233642F6BEF12F0EA
:1025000060C060F061C061F01200000E0001686FF1
:102510000A0E676FB6EC12F0956A800E836E300E6D
:1025200089EC0FF0000E0001686F320E676FB6EC99
:1025300012F0300E89EC0FF0010E0001686F2C0EC6
:10254000676FE7EC12F0300E89EC0FF0320E89EC79
:102550000FF02C0E89EC0FF0060E89EC0FF00F0E29
:1025600089EC0FF0010E89EC0FF01200000E000153
:102570006A6F000E696FD0EF12F0000E6C6F000EE4
:102580006B6F6B4B6C2BD00E6B5D070E6C59D8A02C
:10259000CCEF12F0CEEF12F0C1EF12F0694B6A2BC4
:1025A00067C060F068C061F0000E636F0A0E626F72
:1025B00017EC12F000016051695D61516A59D8A0B1
:1025C000E4EF12F0E6EF12F0BDEF12F01200000E91
:1025D00000016A6F000E696F01EF13F0000E6C6F5F
:1025E000000E6B6F6B4B6C2B6C5109E1020E6B5D37
:1025F000D8A0FDEF12F0FFEF12F0F2EF12F0694BEE
:102600006A2B67C060F068C061F0000E636F0A0E4D
:10261000626F17EC12F000016051695D61516A59F7
:10262000D8A015EF13F017EF13F0EEEF12F0120031
:1026300000001600310056008400B900F600370192
:102640007C019F01C2019F017C013701F600B900A6
:1026500084005600310016000000160031005600BC
:102660008400B900F60037017C019F01C2019F017F
:102670007C013701F600B9008400560031001600D5
:102680000000F28EF28C85EC12F00C0E89EC0FF04B
:10269000000E0001746F390E756F300E766F000EEC
:1026A000776F000E786F000E04EC14F01CEC14F041
:1026B00036EC14F02FEC14F028EC14F065EC0DF06F
:1026C0000FEC0FF0936A8A681200000E0001AF1B36
:1026D000000EB01B000EB11B800EB21BABC06EF023
:1026E000ACC06FF0ADC070F0AEC071F0AFC072F0B2
:1026F000B0C073F0B1C074F0B2C075F001EC04F07A
:102700006EC0ABF06FC0ACF070C0ADF071C0AEF099
:10271000120041EC13F08A860B0E0001CD6F260EDD
:10272000CC6F5D0EE82EFED7CC2FFCD7CD2FFAD77D
:1027300000D08A96020E0001CD6F040ECC6FBA0E47
:10274000E82EFED7CC2FFCD7CD2FFAD70000000003
:102750008BEF13F007EF00F0000171BFB4EF13F03F
:10276000B2EF13F0BEEF13F06F51D96EDA6A2D0E8F
:10277000DF6E6F2B706D711FD8B0712B6FC067F05B
:1027800070C068F071C069F072C06AF073C06BF01D
:10279000E9EC0FF0120032B002D0BA9801D0BA883A
:1027A000D8903330356E3230346E343A3446BA50C5
:1027B0003418DF0B3418BA6E32C034F033C035F041
:1027C000D89035323432D890353234323450BB6EF2
:1027D0001200300EF66E260EF76E000EF86E01EE49
:1027E00000F010EE52F00900F5CFEEFFE550E15099
:1027F000FAE100EE3CF0070EEE6AE806FDE14390D8
:102800004392000189EF13F000017E6F790E000101
:102810006F6F75C070F076C071F0000E736F0A0EA6
:10282000726FACEC13F074C06EF0790E00016F6F34
:102830007E51D6EC11F012000F0E926E9680C26A95
:10284000090EC16EBE0EC06EC280C46AC36A120099
:10285000070ECA6E9D829E929F82CC6A1200B10EB4
:10286000CD6ECE6ACF6A9D809E901200900ED56E7E
:10287000D58EF28A120001C0CEFF0250CF6E120038
:0A28800001C0D6FF0250D76E12000F
:00000001FF
