:0400000007EF00F016
:0A0008005B8249ED09F0D9EF0DF01D
:1008000000001550800B1E6E15501524206E14AE7E
:100810000CEF04F00EEF04F00FEF04F020802050F6
:10082000D8B415EF04F017EF04F02BEF04F02028F4
:10083000D8A41DEF04F01FEF04F027EF04F0000E22
:10084000126E000E136E000E146E000E156E148ED6
:10085000156A33EF04F0000E126E000E136E000ED8
:10086000146E000E156E1950800B1F6E1E501F184F
:10087000D8B43DEF04F03FEF04F040EF04F01E8CDD
:10088000195019241F6E18AE48EF04F04AEF04F017
:100890004BEF04F01F801F50D8B451EF04F053EF1A
:1008A00004F067EF04F01F28D8A459EF04F05BEFC1
:1008B00004F063EF04F0000E166E000E176E000ECB
:1008C000186E000E196E188E196A6FEF04F0000E84
:1008D000166E000E176E000E186E000E196E205068
:1008E0001F5CD8B076EF04F078EF04F09FEF04F0CF
:1008F0001EAC7DEF04F07FEF04F081EF04F0800E7A
:100900001E1A20C021F01FC020F021C01FF012C00D
:1009100021F016C012F021C016F013C021F017C04C
:1009200013F021C017F014C021F018C014F021C03A
:1009300018F015C021F019C015F021C019F0216A76
:1009400020501FC01AF01B6A1A5E000E1B5A1BBEF5
:10095000B3EF04F01B5009E11A0E1A5CD8A0B3EFF4
:1009600004F0B5EF04F0ECEF04F012501310141083
:100970001510D8A4BEEF04F0C1EF04F0010EC2EFD1
:1009800004F0000E216E000E126E000E136E000EAB
:10099000146E000E156E1FC020F0F5EF04F021A0BC
:1009A000D4EF04F0D6EF04F0DCEF04F0D89021305F
:1009B0000109216EDEEF04F0D890213212A0E3EF9E
:1009C00004F0E5EF04F0E6EF04F0218E1534153263
:1009D000143213321232202A1F50205CD8A0F3EFB9
:1009E00004F0F5EF04F0CFEF04F01EBCFAEF04F0D2
:1009F000FCEF04F03CEF05F02050D8A402EF05F026
:100A000004EF05F00EEF05F0000E126E000E136EEF
:100A1000000E146E000E156E5BEF06F016501226D7
:100A200017501322185014221950152215A01BEF2D
:100A300005F01DEF05F0C9EF05F021A022EF05F04C
:100A400024EF05F02AEF05F0D89021300109216E3E
:100A50002CEF05F0D890213212A031EF05F033EFE2
:100A600005F034EF05F0218E1534153214321332AF
:100A70001232202AC9EF05F01650125C1750135895
:100A8000185014581550800A1A6E1950800A1A58B6
:100A9000D8B04DEF05F04FEF05F07AEF05F01250AA
:100AA000165C1A6E135017581B6E145018581C6E93
:100AB000155019581D6EFF0E1A24126EFF0E1B20C2
:100AC000136EFF0E1C20146EFF0E1D20156E800E7F
:100AD0001E1A216C2150D8A470EF05F072EF05F0BA
:100AE00082EF05F0010E1226000E132214221522A9
:100AF00082EF05F01650125E1750135A1850145A10
:100B00001950155A1250131014101510D8A48BEF49
:100B100005F08DEF05F0C2EF05F02150D8A493EF5A
:100B200005F095EF05F0C2EF05F0000E126E000E15
:100B3000136E000E146E000E156E5BEF06F0D8906B
:100B4000123613361436153621AEA9EF05F0ABEF89
:100B500005F0ACEF05F0128021A0B1EF05F0B3EF86
:100B600005F0B7EF05F0D8802136B9EF05F0D89041
:100B700021362050D8B4BFEF05F0C1EF05F0C2EF29
:100B800005F0200614AEC7EF05F0C9EF05F09FEFA2
:100B900005F01F6A21AECFEF05F0D1EF05F0E9EFC8
:100BA00005F021C01AF07F0E1A16D8B4DAEF05F05E
:100BB000DCEF05F0E0EF05F0010E1F6EE9EF05F048
:100BC00012A0E5EF05F0E7EF05F0E9EF05F0DCEF47
:100BD00005F01F50D8B4EFEF05F0F1EF05F01CEF72
:100BE00006F0010E1226000E13221422152215A063
:100BF000FCEF05F0FEEF05F01CEF06F012C01AF056
:100C000013C01BF014C01CF015C01DF01D341D32A4
:100C10001C321B321A321AC012F01BC013F01CC057
:100C200014F01DC015F02028D8B419EF06F01BEF02
:100C300006F01CEF06F0202A2028D8B422EF06F098
:100C400024EF06F02CEF06F02050D8A42AEF06F08F
:100C50002CEF06F03DEF06F0000E126E000E136E44
:100C6000000E146E000E156E2050D8A43AEF06F058
:100C70003CEF06F03DEF06F01E6A20A042EF06F0C2
:100C800044EF06F047EF06F0148E48EF06F0149E8E
:100C9000D8902030156E1EAE50EF06F052EF06F0E1
:100CA00053EF06F0158E12C012F013C013F014C0EB
:100CB00014F015C015F012002550800B2E6E255033
:100CC0002524346E24AE67EF06F069EF06F06AEF74
:100CD00006F034803450D8B470EF06F072EF06F0AE
:100CE00085EF06F03428D8A478EF06F07AEF06F006
:100CF00082EF06F0000E226E000E236E000E246EB0
:100D0000000E256E248E8DEF06F0000E226E000E72
:100D1000236E000E246E000E256E2950800B2E1AB5
:100D200029502924336E28AE98EF06F09AEF06F08A
:100D30009BEF06F033803350D8B4A1EF06F0A3EF59
:100D400006F0B6EF06F03328D8A4A9EF06F0ABEF13
:100D500006F0B3EF06F0000E266E000E276E000EB2
:100D6000286E000E296E288EBEEF06F0000E266E4D
:100D7000000E276E000E286E000E296E3350D8B478
:100D8000C4EF06F0C6EF06F0CEEF06F03450D8A45C
:100D9000CCEF06F0CEEF06F0D8EF06F0000E226E94
:100DA000000E236E000E246E000E256E6EEF08F00E
:100DB00028502202F3CF39F0F4CF3AF039502F6E99
:100DC000306A316A326A3A50356E366A376A386A42
:100DD00027502302F3CF39F0F4CF3AF039502F26C1
:100DE000000E3022312232223A503526000E3622B1
:100DF0003722382226502402F3CF39F0F4CF3AF0CC
:100E000039502F26000E3022312232223A50352618
:100E1000000E36223722382231C032F030C031F095
:100E20002FC030F02F6A26502302F3CF39F0F4CFD1
:100E30003AF039502F263A503022000E3122000E5F
:100E4000322227502202F3CF39F0F4CF3AF0395052
:100E50002F263A503022000E3122000E322231C0AD
:100E600032F030C031F02FC030F02F6A265022020D
:100E7000F3CF39F0F4CF3AF039502F263A503022E0
:100E8000000E3122000E322228502302F3CF39F017
:100E9000F4CF3AF0395035263A503622000E372238
:100EA000000E382227502402F3CF39F0F4CF3AF065
:100EB000395035263A503622000E3722000E38229D
:100EC00028502402F3CF39F0F4CF3AF039502A6E8B
:100ED0003A502B6E2C6A2D6A2CC02DF02BC02CF0B2
:100EE0002AC02BF02A6A2A5035262B5036222C5045
:100EF00037222D5038222FC02AF030C02BF031C0BD
:100F00002CF032C02DF0190E8BEF07F0D8902D3257
:100F10002C322B322A32E82E86EF07F02A50352663
:100F20002B5036222C5037222D50382231C032F02F
:100F300030C031F02FC030F02F6A335034C02AF067
:100F40002B6A2A26000E2B22820E2A24396EFF0ECF
:100F50002B203A6EC1EF07F0D8903536363637364B
:100F6000383632AEB6EF07F0B8EF07F0B9EF07F05A
:100F70003580D8902F363036313632363906D8A003
:100F80003A0637AEC6EF07F0C8EF07F0ACEF07F050
:100F9000336A32AECEEF07F0D0EF07F0F4EF07F090
:100FA000FF0E2F142A6EFF0E30142B6EFF0E31141D
:100FB0002C6E7F0E32142D6E2A502B102C102D10FB
:100FC000D8B4E5EF07F0E7EF07F0EBEF07F0010E1D
:100FD000336EF4EF07F035A0F0EF07F0F2EF07F013
:100FE000F4EF07F0E7EF07F03350D8B4FAEF07F06B
:100FF000FCEF07F020EF08F0010E3526000E362238
:101000003722382238A007EF08F009EF08F020EF68
:1010100008F035C02AF036C02BF037C02CF038C0AD
:101020002DF02D342D322C322B322A322AC035F0BD
:101030002BC036F02CC037F02DC038F0394A3A2A90
:101040003ABE2BEF08F03A5008E13928D8A02BEF30
:1010500008F02DEF08F037EF08F0000E356E000EA7
:10106000366E800E376E7F0E386E64EF08F03ABE33
:1010700044EF08F03A5006E13904D8B042EF08F0E6
:1010800044EF08F04FEF08F0000E356E000E366E9C
:10109000000E376E000E386E2E6A64EF08F039C00D
:1010A00034F0FF0E3516FF0E36167F0E3716000E83
:1010B000381634A05EEF08F060EF08F061EF08F03A
:1010C000378ED8903430386E2E50381235C022F01A
:1010D00036C023F037C024F038C025F012000C6E63
:1010E0000C50D8B476EF08F078EF08F09AEF08F0DB
:1010F00007BE7FEF08F07DEF08F09AEF08F004C01C
:1011000008F005C009F006C00AF007C00BF0081E81
:10111000091E0A1E0B1E082A000E09220A220B2293
:1011200008C00EF009C00FF00AC010F00BC011F09B
:10113000A2EF08F004C00EF005C00FF006C010F0DA
:1011400007C011F00450051006100710D8A4ABEF2B
:1011500008F0ADEF08F0B7EF08F0000E046E000ED7
:10116000056E000E066E000E076E48EF09F0960E33
:101170000D6EC1EF08F00D2AD890113210320F32E7
:101180000E32000E0E14086E000E0F14096E000EC3
:1011900010140A6EFE0E11140B6E085009100A107E
:1011A0000B10D8A4D6EF08F0D8EF08F0BBEF08F08A
:1011B000E6EF08F00D2A010E0E26000E0F22102277
:1011C0001122D890113210320F320E32000E0E144E
:1011D000086E000E0F14096E000E10140A6EFF0E3A
:1011E00011140B6E085009100A100B10D8A4FBEF55
:1011F00008F0FDEF08F0DAEF08F005EF09F00D0652
:10120000D8900E360F361036113610BE0AEF09F0A0
:101210000CEF09F014EF09F0020E0D6012EF09F067
:1012200014EF09F0FFEF08F00DB019EF09F01BEF14
:1012300009F01CEF09F0109ED8900D320DC008F097
:10124000096A0A6A0B6A08C00BF00A6A096A086A26
:1012500008500E1209500F120A5010120B501112A2
:101260000C50D8B436EF09F038EF09F040EF09F030
:1012700007BE3FEF09F03DEF09F040EF09F0118E96
:101280000EC004F00FC005F010C006F011C007F04A
:1012900012000600F2A44FEF09F051EF09F06AEFD7
:1012A00009F0F294FE0E026E0C0E016E06EC0EF0CA
:1012B0008ABE5DEF09F060EF09F0010E61EF09F001
:1012C000000EFF0A036E033203328A5003187F0BAD
:1012D00003188A6E9EA26FEF09F071EF09F0EEEF2E
:1012E00009F0592A9E923B0E5918D8A47AEF09F0BA
:1012F0007CEF09F07FEF09F08A90572A8B943C0E1F
:101300005918D8A486EF09F088EF09F094EF09F096
:10131000596A8A80020E5718D8A491EF09F093EF0A
:1013200009F094EF09F0576A150E5818D8A49BEFEE
:1013300009F09DEF09F09EEF09F08A982D0E5818DC
:10134000D8A4A5EF09F0A7EF09F0A8EF09F08A8863
:10135000330E5818D8A4AFEF09F0B1EF09F0B2EF8F
:1013600009F08A984A0E5818D8A4B9EF09F0BBEFD3
:1013700009F0BCEF09F08A88510E5818D8A4C3EFC1
:1013800009F0C5EF09F0C6EF09F08A98580E581811
:10139000D8A4CDEF09F0CFEF09F0D0EF09F08A889B
:1013A0006F0E5818D8A4D7EF09F0D9EF09F0DAEF8B
:1013B00009F08A98760E5818D8A4E1EF09F0E3EF07
:1013C00009F0E4EF09F08A88582A770E5864EBEFA9
:1013D00009F0EDEF09F0EEEF09F0586A5B921100A9
:1013E000720ED36ECA84CC6A0F0EBD6E8E0E0001D3
:1013F000606FE30E616F0A0E626F430E636F19EC4C
:101400000CF060C06AF061C06BF062C06CF063C049
:101410006DF06AC03BF06BC03CF06CC03DF06DC03D
:101420003EF092EC0AF03B500001766F76C0CBFFA5
:10143000000E266E000E276E000E286E400E296EDE
:10144000000E166E000E176E800E186E3F0E196E8F
:101450007651046E056A066A076A000E6FEC08F0A2
:1014600004C012F005C013F006C014F007C015F058
:1014700001EC04F012C022F013C023F014C024F0D9
:1014800015C025F05CEC06F022C06EF023C06FF0B2
:1014900024C070F025C071F06EC060F06FC061F0C4
:1014A00070C062F071C063F019EC0CF060C072F0B3
:1014B00061C073F062C074F063C075F072C03BF03D
:1014C00073C03CF074C03DF075C03EF092EC0AF081
:1014D0003BC077F03CC078F0000177B102D0BD98F6
:1014E00001D0BD88D89000017831696F7731686F7D
:1014F000683B6847BD506819DF0B6819BD6E77C03F
:1015000068F078C069F0D89069336833D89069334F
:1015100068336851BE6E93908A80800EB76ED00E8D
:10152000B66E12003D343E34446E4450D8A49BEF56
:101530000AF09DEF0AF0A7EF0AF0000E3B6E000ED6
:101540003C6E000E3D6E000E3E6E14EF0BF03BC085
:101550003FF03CC040F03DC041F03EC042F0200EA4
:10156000B7EF0AF0D8904232413240323F32E82E93
:10157000B2EF0AF03F50436E3D8EFF0E3B16FF0E5A
:101580003C16FF0E3D16000E3E16960E445E44BEFF
:10159000CEEF0AF0CCEF0AF0E4EF0AF04450800AF4
:1015A000970FD8B0D6EF0AF0D8EF0AF0DAEF0AF0CA
:1015B0009DEF0AF0D8903E323D323C323B32443E01
:1015C000DAEF0AF0FCEF0AF01F0E4464EAEF0AF0CB
:1015D000ECEF0AF0F4EF0AF09DEF0AF0D8903B36FA
:1015E0003C363D363E3644064450D8A4FAEF0AF065
:1015F000FCEF0AF0EEEF0AF04350D8B402EF0BF024
:1016000004EF0BF00CEF0BF03E1E3D1E3C1E3B6C3E
:10161000000E3C223D223E223BC03BF03CC03CF051
:101620003DC03DF03EC03EF0120045C010F046C047
:1016300011F047C012F048C013F04D0E146E6AEC62
:101640000CF04EBE28EF0BF026EF0BF032EF0BF054
:10165000000E456E000E466E000E476E000E486E80
:101660006CEF0BF04E5009E11D0E4D5CD8A03BEF26
:101670000BF03DEF0BF047EF0BF045C045F046C0D7
:1016800046F047C047F048C048F06CEF0BF045C04B
:101690003BF046C03CF047C03DF048C03EF092EC05
:1016A0000AF03BC004F03CC005F03DC006F03EC06F
:1016B00007F0010E6FEC08F004C049F005C04AF0D5
:1016C00006C04BF007C04CF049C045F04AC046F098
:1016D0004BC047F04CC048F01200116EF00E836E04
:1016E000000E0C6E0A0E0B6E1FEC0DF011508314E1
:1016F000F00B836E000E0C6E0A0E0B6E1FEC0DF0DD
:10170000839483928380000E0C6E0A0E0B6E1FEC86
:101710000DF08390000E0C6E0A0E0B6E1FEC0DF098
:10172000F00E836E1138F00B8314F00B836E8394EC
:1017300083928380000E0C6E0A0E0B6E1FEC0DF070
:101740008390000E0C6E0A0E0B6E1FEC0DF0110450
:10175000D8A4ADEF0BF0AFEF0BF0B5EF0BF0000E30
:101760000C6E640E0B6E1FEC0DF01150D8A4BBEF85
:101770000BF0BDEF0BF0C3EF0BF0000E0C6E640E20
:101780000B6E1FEC0DF01200000E04140C6E000E18
:1017900005140D6E800E06140E6E7F0E07140F6E6C
:1017A0000C500D100E100F10D8A4D9EF0BF0DBEF7A
:1017B0000BF0E3EF0BF0000E046E000E056E000E52
:1017C000066E000E076E000E08140C6E000E091453
:1017D0000D6E800E0A140E6E7F0E0B140F6E0C50E1
:1017E0000D100E100F10D8A4F8EF0BF0FAEF0BF05D
:1017F00002EF0CF0000E086E000E096E000E0A6E6D
:10180000000E0B6E085004180FE1095005180CE18A
:101810000A50061809E10B500718D8B412EF0CF063
:1018200014EF0CF017EF0CF0D89018EF0CF0D880F4
:10183000120060C04FF061C050F062C051F063C050
:1018400052F060C045F061C046F062C047F063C02E
:1018500048F015EC0BF045C053F046C054F047C0BB
:1018600055F048C056F0A3EC0DF04FC064F050C0E6
:1018700065F051C066F052C067F060C012F061C000
:1018800013F062C014F063C015F064C016F065C0B8
:1018900017F066C018F067C019F001EC04F012C030
:1018A00060F013C061F014C062F015C063F060C056
:1018B00045F061C046F062C047F063C048F015ECE7
:1018C0000BF045C060F046C061F047C062F048C010
:1018D00063F0120010C004F011C005F012C006F051
:1018E00013C007F0000E086E000E096E000E0A6E9F
:1018F000000E0B6EC4EC0BF0D8A081EF0CF083EF60
:101900000CF08AEF0CF01450D96EDA6ADE6ADD6AE8
:10191000B5EF0CF013507F0B156E166AD890153684
:1019200016361450D96EDA6A15C0DEFF16C0DDFF18
:101930001450D96EDA6A12BEA0EF0CF0A4EF0CF0CE
:10194000156A152AA5EF0CF0156A1550DE12000E67
:10195000DD121450D96EDA6A820EDE26FF0EDD2209
:101960001350800B3F09136E129E1200000E096E79
:10197000000E086E06500710D8B4C1EF0CF0C3EF8C
:101980000CF0EBEF0CF0010E0A6ECBEF0CF0D890E0
:10199000063607360A2A07AED0EF0CF0D2EF0CF06D
:1019A000C7EF0CF0D890083609360650045C075093
:1019B0000558D8A0DEEF0CF0E0EF0CF0E5EF0CF0EE
:1019C0000650045E0750055A0880D8900732063248
:1019D0000A2ED2EF0CF008C004F009C005F0120086
:1019E000000E0E6E000E0D6E09EF0DF0000E106E63
:1019F000000E0F6E0F4A102AD00E0F5C070E105803
:101A0000D8A005EF0DF007EF0DF0FAEF0CF00D4A3E
:101A10000E2A0BC004F00CC005F0000E076E0A0E73
:101A2000066EB6EC0CF004500D5C05500E58D8A0B4
:101A30001CEF0DF01EEF0DF0F6EF0CF01200000E93
:101A40000E6E000E0D6E38EF0DF0000E106E000ED3
:101A50000F6E0F4A102A105009E1020E0F5CD8A039
:101A600034EF0DF036EF0DF029EF0DF00D4A0E2A90
:101A70000BC004F00CC005F0000E076E0A0E066ED7
:101A8000B6EC0CF004500D5C05500E58D8A04BEF8E
:101A90000DF04DEF0DF025EF0DF01200000E0C6E65
:101AA0000A0E0B6EF0EC0CF0956A800E836E300E11
:101AB0006DEC0BF0000E0C6E320E0B6EF0EC0CF0B9
:101AC000300E6DEC0BF0010E0C6E2C0E0B6E1FEC3D
:101AD0000DF0300E6DEC0BF0320E6DEC0BF02C0EA9
:101AE0006DEC0BF0060E6DEC0BF00F0E6DEC0BF0C9
:101AF000010E6DEC0BF01200C6EC0DF081BA83EF15
:101B00000DF086EF0DF0010E87EF0DF0000EFF0ACD
:101B10000001796F793B79478A507919DF0B791980
:101B20008A6E060E00017A6F130E796FAD0EE82EE5
:101B3000FED7792FFCD77A2FFAD700D000007EEF9E
:101B40000DF007EF00F0000E531A000E541A000EAD
:101B5000551A800E561A4FC012F050C013F051C0E3
:101B600014F052C015F053C016F054C017F055C011
:101B700018F056C019F001EC04F012C04FF013C079
:101B800050F014C051F015C052F01200F28EF28CD9
:101B90004EEC0DF00C0E6DEC0BF0F0EC0DF0E5ECF6
:101BA0000DF0FAEC0DF0F0EC09F09494936A8A6869
:101BB000120000017C6B7B6B5A6A596A586A576A3B
:101BC0005B905B9200017CEF0DF0900ED56ED58E90
:101BD000F28AFE0E056E0C0E046E01EC0EF0120081
:101BE0000F0E926E0B0EC16EBE0EC06EC280C46A26
:101BF000C36A1200070ECA6E9D829E929F82CC6AB3
:101C0000120004C0D6FF0550D76E120001C0D6FFE7
:061C10000250D76E120025
:00000001FF
